:020000021000EC
:1090000000600020759301005D9301005F930100F3
:10901000619301006393010065930100000000006B
:109020000000000000000000000000006793010045
:1090300069930100000000006B9301006D93010033
:1090400091B301006F930100D5B701006F93010048
:109050006F9301000000000051B601006F93010002
:109060006F9301006F9301006F9301006F930100F4
:109070006F9301006F9301006F9301006F930100E4
:109080006F93010025A101006F9301006F93010010
:10909000C1A101006F930100B1CB01006F930100EA
:1090A0006F9301006F9301000000000000000000BA
:1090B0006F9301006F9301000000000000000000AA
:1090C00000000000000000000000000000000000A0
:1090D0000000000000000000000000000000000090
:1090E0000000000000000000000000000000000080
:1090F0000000000000000000000000000000000070
:10910000000000000000000000000000000000005F
:10911000000000000000000000000000000000004F
:10912000000000000000000000000000000000003F
:10913000000000000000000000000000000000002F
:10914000000000000000000000000000000000001F
:10915000000000000000000000000000000000000F
:1091600000000000000000000000000000000000FF
:1091700000000000000000000000000000000000EF
:1091800000000000000000000000000000000000DF
:1091900000000000000000000000000000000000CF
:1091A00000000000000000000000000000000000BF
:1091B00000000000000000000000000000000000AF
:1091C000000000000000000000000000000000009F
:1091D000000000000000000000000000000000008F
:1091E000000000000000000000000000000000007F
:1091F000000000000000000000000000000000006F
:10920000354936480A1A02D0072291438D4634491F
:1092100034480A1A06D00722914381F309880222B2
:1092200082F3148830483149314A00F044F831481B
:109230003149324A00F03FF831483249324A00F0B1
:109240003AF832483249334A00F035F83248334967
:10925000334A00F030F833483349344A00F02BF8F1
:1092600033483449344A00F026F83448344900225F
:1092700000F02CF833483449002200F027F8334836
:109280003349091A082902DB002202604160314A91
:1092900090471F481F49884205D00268043003B434
:1092A000904703BCF7E700208646EC4600200021EB
:1092B000294A9047FEE7884207D0521A05D0037822
:1092C00001300B700131013AF9D17047884202D068
:1092D00002700130FAE7704700600020005800205B
:1092E00000600020006000203CDD01001012002022
:1092F0006C120020C0930100C0930100E2D0010075
:109300003CDD0100101200201012002080D101006D
:1093100080D1010080D1010080D1010080D1010005
:1093200080D1010080D1010080D101003CDD01002D
:1093300098DD01006C1200206C1200206C120020DD
:10934000571B0020581B0020581B0020581B0020D2
:10935000582300208B93010009C50100FEE7FEE7BA
:10936000FEE7FEE7FEE7FEE7FEE7FEE7FEE7FEE7D5
:10937000704700BF0C4880470C484FF007018843F6
:1093800085460B488047FFF73BBF0A480A490B4A0E
:10939000884207D0521A05D0037801300B70013192
:1093A000013AF9D17047000071930100006000207C
:1093B000C5AD010080D10100101200201012002064
:1093C000F0B595B01C46164608460D4601F003FC64
:1093D0001A9B0D93CDE9086400242346082205A9B1
:1093E00028460A948DF82C400C9401F011FC079B40
:1093F0000293069B03939DF814308DF8114003F0FF
:109400000302012A1DD1BDF81440059EC3F3C20317
:10941000C4F383148DF81030A20008230EA9284647
:1094200001F0F6FBC6F3952608AB0093224602AB8B
:109430000EA9304600F0D6FB284601F0D0FB15B04F
:10944000F0BD022AF8D1BDF81640C3F3C203A40947
:109450008DF810300827082C264628BF08263B46E2
:1094600032460EA9284601F0D3FBA41B08AB02AA82
:1094700031460EA8374400F019FC002CEBD1DBE795
:10948000014B01221A707047AD1200207047000096
:1094900070B50E4D06460FCD88B06C460FC495E8EA
:1094A0000F00002E84E80F004FF00603084A094819
:1094B000009308BF0022694601F004FF08B100F0E4
:1094C00083FD054B1E7008B070BD00BF80D1010048
:1094D00081940100101200206C12002007B5044B8B
:1094E0000093044A4023FFF76BFF03B05DF804FBD1
:1094F000F99401006D12002038B50D4B0D4D002080
:1095000018700D4804782D5DD2B21C4665B1043048
:1095100002F088FD08B100F057FD084B1A7812B12F
:109520002378002BFBD038BD0C3002F081FBF1E733
:10953000AD120020D8190020101200206C1200205B
:1095400008B50848084A0378D35C3BB1043002F000
:1095500005FD0020BDE80840FFF79ABF0C3002F07F
:1095600003FBF6E710120020D81900200120FFF7B6
:109570008FBF000008B5FFF7F9FF0421034800F092
:109580009FFA034B01225A7108BD00BF70D1010040
:1095900024120020037813F0040216D003F0030312
:1095A000012B03D0022B09D0012070470A680088E4
:1095B0000232C0F3831002440A60F5E70B68428868
:1095C000023303EB92130B60EEE710467047000086
:1095D0002DE9F04F87B000230446851C0DF10700EC
:1095E0000F4690468DF8073000F0DEFF45480668CC
:1095F0003E60D0E90132134401339B1B824600F2E6
:109600001C4600F5836900F21447AB421BD30022CD
:10961000B8F1000F70D0052363F3070264F38912D9
:10962000DAF80010DAF808309DF807000B40033331
:109630000D444AF82320CAF8005000F0D9FF012059
:1096400007B0BDE8F08F0121304601F007F8484629
:1096500001F01AF8384601F017F8DAF80400DAF8E1
:1096600008B0029000EA0B0003300AEB800002A968
:10967000FFF790FF029B50BB0BEA03020AEB82024A
:1096800003F1020CD2680392013303EA0B0B0AEBDD
:109690008B0B02F00302012ACDF808C0DBF80C1096
:1096A00022D0022A16D08346384600F0F0FF10B1CF
:1096B000029BCAF804305946304600F0CFFFDAE981
:1096C00001231344DAF8002001339B1A9DE70BEACB
:1096D0000300C9E7BDF80E309B0903334FEA114B75
:1096E0000CEB93030293DFE7BDF80C30C3F3831355
:1096F0004FEA114B6344F5E7062363F3070264F373
:109700009F528DE7801300200B4B0C48FF2210B5B1
:109710009A600022C3F81824C3E90022C3F8142475
:1097200083F8202401F010FA044610B9044801F02F
:109730009DFA204610BD00BF8013002004D1010017
:10974000C0D1010030B50A4C71B10A4A0A49121B56
:10975000D20800239A4201D1002030BD31F82350B5
:10976000854202D00133F5E7034654F83300F4E7AD
:1097700018D1010070D1010010120020094B0139ED
:1097800003EBC000032909D8DFE801F00A02040650
:109790000420704700797047407970470020704777
:1097A0000220704718D10100034BD3E90030C31ADF
:1097B00058425841704700BF801300202DE9F04304
:1097C00087B0FFF7F1FF0646002840F0FB807E4D92
:1097D000C5F81804BFF34F8F6868AC68029020404A
:1097E000033005EB800002A9FFF7D4FE029B18B1FD
:1097F000D5F81824002A5FD004EA0302991C01332B
:1098000005EB8202234005EB8303D268DB680493F7
:1098100002F00303022B0392029162D1BDF80E30D5
:109820006A484FEA9318B8F1500FC14628BF4FF06D
:10983000500969F38F1309F10801ADF80E3001F0FA
:109840009BF90746002800F0A88001F0C4F903A99D
:1098500000230822384601F0D1F9029924EA0106D2
:109860000136B600B14535D95FFA89F97EB3F6B253
:10987000A9EB0609214003315FFA89F4B146544E41
:1098800005EB810108234A46384601F0B7F936B1A5
:1098900009F1080322463146384601F0AFF9029B30
:1098A00008F1030803EB98030293D5F81834002B52
:1098B0004BD1D5F810445BE02A689A4204D86A601C
:1098C000304607B0BDE8F08304EA030088E740496A
:1098D0003446D7E72140033108234A4605EB81018E
:1098E000DAE7012B59D1BDF80C303848C3F38311A6
:1098F000062928BF062161F3891302318900ADF8DA
:109900000C3001F039F90746002846D001F063F920
:109910000023082203A9384601F070F90026BDF89B
:109920000C20C2F38312B300964203F10803BCD2A9
:1099300002994A1C21400331029205EB8101042265
:10994000384601F05BF90136E9E7384601F047F99E
:10995000FFF72AFF80F00100C6B2B1E7E3685B7948
:1099600023B1236839461B6820469847E3681C6882
:10997000002CF3D1384601F032F90DF107008DF8D3
:10998000074000F011FED5F818340BB9029B6B604C
:109990009DF8070000F02CFEDAE7D5F8104454B922
:1099A0000C4B0D480D49C01AC008000440F00200DD
:1099B00000F06EF8CCE7236820469B689847E36880
:1099C0001C68ECE700267BE78013002004D101002F
:1099D0008C13002018D1010040D10100CCD101002E
:1099E0002DE9F74F284C80460F46924601A90122E7
:1099F00018469B46D4F80890FFF7EAFD80B3019D16
:109A00000026A91C5E4506EB010233D100211F4848
:109A100000F004FE80F310006A1C02EA090204EB65
:109A20008202000405EA0903033340EA1840D060CB
:109A300014F8232068F3C50204F8232034F8232007
:109A400066F3891224F8232054F8232067F39F2219
:109A500044F8232002F0F80242F0010204F8232027
:109A600094F820341BB1FFF7A9FE0028FBD103B006
:109A7000BDE8F08F09EA020204EB82025AF82630B0
:109A8000D3600136BEE700BF801300209C17002082
:109A900000231A46FFF7A4BF07B50123019201AACC
:109AA000FFF79EFF03B05DF804FB07B5CDE9002387
:109AB00002236A46FFF794FF03B05DF804FB000041
:109AC00030B50F49D1F81024002314463CB9C468BE
:109AD000237152B9C1F810042260184630BDE46801
:109AE00025799D4206D02468F0E7D268116821608C
:109AF0001060F2E701330A2BE7D14FF0FF33ECE7B8
:109B000080130020094A38B50123D2F8104482F8A6
:109B100020341D4604B938BDE3685D7123682046D2
:109B20005B689847E3681C68F4E700BF8013002077
:109B3000037A052B10B50C460FD0437A23B1084A9F
:109B40000849204600F006FE0749204600F002FEC4
:109B50002046BDE8104000F0F2BD002AF8D0F3E73F
:109B600017D201001CD201003CD20100C38873B59A
:109B700004460D4633B1144A00921449144A28464B
:109B800000F0E8FD217A05291CD0637A4BB1A0884A
:109B9000FFF7F4FD0F4B104953F82020284600F042
:109BA000D9FD227A0D4BA08853F822600021FFF7DF
:109BB000C9FD0B4903463246284602B0BDE8704055
:109BC00000F0C8BD02B070BD17D2010027D201005D
:109BD0001FD20100E4D101001CD201004CD20100CF
:109BE0003FD201002DE9F04385B01F460C9D0023B4
:109BF00006460C46904695F80C902B73294638463D
:109C0000FFF7B4FFB8F1060F09D8DFE808F0041237
:109C1000181F283340003146284600F09BFD0022E3
:109C200029463846FFF784FF85F80C9005B0BDE85B
:109C3000F08322683146284600F08CFDEFE7D4E936
:109C400000233146284600F085FDE8E7A36800932D
:109C50003146D4E90023284600F07CFDDFE7E368C5
:109C60000193A36800933146D4E90023284600F00D
:109C700071FDD4E723690293E3680193A36800931D
:109C80003146D4E90023284600F064FDC7E7636944
:109C9000039323690293E3680193A3680093314619
:109CA000D4E90023284600F055FDB8E708292DE93E
:109CB000F84F80460E4617461C463AD8002593F8C2
:109CC0000C901D7319461046FFF750FFDFF884A073
:109CD000DFF884B0AE422ED918F805205946204648
:109CE00000F038FD0135082DF4D11849DFF86CB0CB
:109CF000204600F02FFD4FF0000A564520D918F8F5
:109D00000A507E2D03D8284603F05AF900B92E25B3
:109D10002A465946204600F01DFD0AF1010ABAF113
:109D2000080FEAD1012221463846FFF701FF84F8E7
:109D30000C90BDE8F88F5146204600F00BFDD1E7AE
:109D40000349204600F006FDE7E700BF12D20100FC
:109D500010D201000ED2010008D2010014D201007D
:109D60002DE9F04F394E87B04FF00009384B1B7882
:109D70005FFA89F5AB4202D807B0BDE8F08F354BEA
:109D8000D3F800A01AF835000124D6E9001EA0F18E
:109D90002002C0F1200304FA02F224FA03F3134371
:109DA00004FA00FC009301EA0C030293009B0EEA04
:109DB00003030393DDE9022313430AEBC50B41D0F0
:109DC000009B21EA0C012EEA0303C6E9001301F00F
:109DD00035FC1AF835502049A5F12002C5F12003C1
:109DE00004FA02F224FA03F31343D1E900C2AC40AF
:109DF000134004EA0C0105930024C3B2CDE90034FA
:109E0000009A0491C5F12003A5F1200122FA03F381
:109E100002FA01F848EA03081346AB401F46DDE9A1
:109E20000434444508BFBB420CD1DBF804304BB1CD
:109E30009BF801104A1E51425141081A41424141CA
:109E40002846984709F1010990E700BF70180020E3
:109E50003C18002078180020681800202DE9F041F7
:109E60008046204800F090FBD0BB0125A8F12004DB
:109E7000C8F1200325FA03F305FA04F41C431A4B36
:109E8000D3E9001205FA08F501EA050602EA04071B
:109E900056EA07001E461DD1404601F0CFFB134B8A
:109EA000D3E9001288B129432243C3E90012D6E95D
:109EB00000231C430E4B0B4819681543C6E9005498
:109EC0000022BDE8F04100F019BB21EA050122EAB9
:109ED0000402EAE721EA050522EA0404C3E9005482
:109EE000BDE8F08144180020701800206818002098
:109EF00040180020042A2DE9F34105460C46164679
:109F00003AD901F0D9FAD8B11C4B1D491D601D4B3F
:109F1000DFF884801C701C4B00221E600023C1E906
:109F200000231A49C1E90023013CE4B200260327BB
:109F3000FF2C0CD1164A1748002100F0CDFA03E09F
:109F400001F082FA0028DFD002B0BDE8F08123B230
:109F500005EBC30201A992788DF8052015F83300AE
:109F60008DF8066042468DF8047001F0AFFA013CAE
:109F7000E4B20028DCD0E7E70720E5E77818002006
:109F8000681800203C18002040180020701800209D
:109F9000619D0100ACD201005D9E010070B5084DCD
:109FA000084E00242B789C4201D3002070BD3368FA
:109FB000012113F8340001F0FDFA0134F2E700BF8B
:109FC0003C180020781800201FB50021039001AA3A
:109FD00044F20100CDE9011100F004F805B05DF88C
:109FE00004FB000010B572B6FFF78CFDFFF7E6FB2F
:109FF0000028FBD1104B114C1149E41AE408240449
:10A0000044F00100FFF744FD0E4B1B68DB0700D551
:10A0100000BE0D4944F00200FFF73AFDBFF34F8F39
:10A020000A490B4BCA6802F4E0621343CB60BFF3EA
:10A030004F8F00BFFDE700BF18D1010040D10100E4
:10A04000B0D20100F0ED00E0BCD2010000ED00E074
:10A050000400FA05094A537891780133DBB299423A
:10A0600008BF0023117899421FBF0370507818234E
:10A0700003FB002014BF0430002070477C18002030
:10A0800073B5054600240DF107000E468DF8074014
:10A0900000F08AFA0DF10600FFF7DCFF90B10670C0
:10A0A000094B9DF8062045605A709DF8070000F0A6
:10A0B0009FFA24B9054B4FF48012C3F800212046C3
:10A0C00002B070BD0424F0E77C18002000E100E03D
:10A0D000024B4FF43C6043F001031847D0D201001B
:10A0E00038B50C4B0C4C4FF40032C3F880200125DE
:10A0F0004FF48033C4F84833C4F808336560FFF781
:10A10000E7FF064BA56000241C60FFF7E1FF044B4E
:10A110001C7038BD00E100E00010014098190020DB
:10A1200089190020F8B51F4B1F491B680025C1F88D
:10A130004051C1F84451C1F84851C1F84C51C1F8DF
:10A140000051C1F804514BB3D1F8044517490968CF
:10A15000641A24F07F442F461A68A24209D8A41A30
:10A1600015441A7CDE691AB11F74D3E905209047A3
:10A17000AEB90F4A0F4B11781B788B4205D10133D2
:10A18000DBB2022B08BF0023137012780A4B43F88E
:10A1900022500A4B4FF48012C3F80021F8BD334619
:10A1A000DAE700BF9C190020001001409819002038
:10A1B00095190020941900208C19002000E100E07E
:10A1C0002DE9F04FA14AA24913780978A14D99428F
:10A1D00085B03CD00133DBB2022B08BF00231370E3
:10A1E0009D4912789D4B0F6853F822003B1823F0CD
:10A1F0007F4300220B602B6816461446944613B921
:10A2000042B12B6006E0196881420ED902B12B6081
:10A21000091A196001272B68DFF848A201934FF053
:10A220000008BEB9DFF844B266E0401A0C44D968B1
:10A23000C3F800C0D3F81CE031B13A1922F07F42D4
:10A24000C3E90121DE611E4601227346D7E70026DD
:10A250003746E0E73446F6697F4A63681268DFF8FC
:10A2600010C2A068991A21F07F41614500F2A680D2
:10A2700001442160012222742A680023C4E90133C9
:10A28000E361002A40F0A3802C60CAE75A1C9BF8C7
:10A290000210D2B291428BF8002004BF00228BF84A
:10A2A0000020182202FB03B31A799C68022A1CD0F2
:10A2B000032A12D0012A1FD1207CE8B9D3E9031266
:10A2C000A2605A69E2609A69654BA2611B78002B13
:10A2D0000CBF0B4603466360BEE700222B681146A5
:10A2E000002B67D142B12B6006E029680A468946F7
:10A2F000002A5AD1002323749BF800309BF80120D8
:10A300009A42C3D12B68B8F1000F04D1019A9A4246
:10A3100001D1002F43D0002B73D0D3F800A0514DB2
:10A320004D4BD5F804751C68DFF848813E1B98F842
:10A33000003026F07F4603369BB94FF48033C5F8D2
:10A340004433C5F80433484B4FF400324FF0010951
:10A35000C3F880211A60C5F80090FFF7B9FE88F8AD
:10A360000090B2452CBF5444A41924F07F44C5F892
:10A370004045D5F80435DB1B23F07F43E41B033352
:10A3800024F07F44A3420AD9D5F80435C5F84035F6
:10A39000FFF79EFE344B4FF40032C3F80021304BE0
:10A3A00000221A7005B0BDE8F08F94422CD091467F
:10A3B000D2699DE719740122DB6991E7D31A23F072
:10A3C0007F43834234BFC31A0023236052E72168CE
:10A3D0001368994213D8591A1160E26154E7091AB7
:10A3E000D8691A4638B1034618688842F7D3401A2C
:10A3F0001860184613462160E061DC6111E71346DE
:10A40000F2E7FFF76DFECAE74C4511D1CB692B602F
:10A4100073B9DFF844E00120CDE90212CAF8080060
:10A42000CEF800300E4B1870FFF752FEDDE9021235
:10A430001368D269C9F81C2012B110680344136074
:10A440002B68994218BF4FF0010853E79419002078
:10A45000951900209C190020981900208C190020C3
:10A46000881900200010014000E100E07C18002065
:10A47000FEFF7F008919002008B5FFF731FE104B61
:10A4800000200B2218809A700E4B18600E4B18702B
:10A490000E4B18700E4B4FF48012C021C3F8802170
:10A4A00083F814131A6002F18042A2F56F22C2F8F9
:10A4B000080583F81113074BD2F804251A6008BD6C
:10A4C0007C1800209C190020941900209519002068
:10A4D00000E100E098190020074B9B784BB132B1A6
:10A4E00028B10368187C20B959745A617047072055
:10A4F00070470820704700BF7C1800202DE9F74303
:10A500001E4FBB7805460E469046A3B398B3042968
:10A510002FD943697BB3437C0024012B0DF1070045
:10A520000CBF8946A1468DF8074000F03DF80DF1BB
:10A530000600FFF78FFDD0B101230370104B45607B
:10A54000D3F80435C0E90498C0E902369DF8063016
:10A550007B709DF8070000F04BF824B9094B4FF4CD
:10A560008012C3F80021204603B0BDE8F083042424
:10A57000EFE70724F7E70824F5E700BF7C18002081
:10A580000010014000E100E0064A92783AB130B193
:10A59000426922B1002202740221FFF771BD082036
:10A5A000704700BF7C18002070B5EFF3108672B6BC
:10A5B0000C4A946801239CB993600B4B0B4DD3F864
:10A5C000801029401160C3F88050D3F88410516086
:10A5D0004FF0FF32C3F88420047006B962B670BD34
:10A5E0000370FAE7A019002000E100E0FC06FFBDBF
:10A5F000084B9A6810B55AB150B9EFF3108172B692
:10A60000054A1C6814605C685460986001B962B6C1
:10A6100010BD00BFA019002000E100E050E8002FAD
:10A620000B4640E8003C9CF0000FF7D11046704705
:10A6300050E8003F43EA010240E8002C9CF0000F84
:10A64000F6D11046704750E8002F02EA010340E8B7
:10A65000003C9CF0000FF6D11046704750E8003FD8
:10A6600003EB010240E8002C9CF0000FF6D11046ED
:10A67000704750E8003FA3EB010240E8002C9CF03B
:10A68000000FF6D1104670470121FFF7D1BF00211E
:10A69000FFF7D9BF10B590B1D0E9012301689B1A2B
:10A6A000DBB20A60013BDBB2FF2B026802D1002063
:10A6B000107110BD11684C1C14600B70F2E70E2075
:10A6C000F7E737B5054600240DF107008DF8074080
:10A6D000FFF76AFF2A686B68116899420ED9481E15
:10A6E000106011F8014CEB68298A01FB0434AB6857
:10A6F00011791B1ADBB2994238BF13719DF807001C
:10A70000FFF776FF204603B030BD37B5054600237E
:10A710000DF107000C468DF80730FFF745FF2A685A
:10A720001368591C1160E968641A298AB4FBF1F4B2
:10A730001C709DF80700FFF75BFF03B030BD826817
:10A7400010B504462AB1436901680069984700239F
:10A75000A36010BD0EB403B5039921B104AB01AAE7
:10A76000019300F075F802B05DF804EB03B0704798
:10A770000A2938B504460D4602D10D21FFF7F8FF2E
:10A78000A3682268591CA160D554D4E901329A42C9
:10A7900004D32046BDE83840FFF7D1BF38BD0000E4
:10A7A0002DE9F84F9946DDE90A4317468246884667
:10A7B0000A460126BA420FD24E4538BF4E4613F024
:10A7C000010B01D164B900240125B9F1010F1AD997
:10A7D00009F1FF397D43F8E7B2FBF7F20136E9E70B
:10A7E0009B070ED5B9F1000F0CBF30252025A642DE
:10A7F000EAD2013C29465046FFF7BAFF002CF6D1B9
:10A80000E1E72025F3E7B8FBF5F39F42E2D9DFF853
:10A810003C90B8FBF5F3504619F8031005FB13887C
:10A82000FFF7A6FFB5FBF7F3BD4207D2BBF1000F60
:10A8300002D00CB1A64203D3BDE8F88F1D46E8E76D
:10A8400020215046013CFFF793FFF2E7D6D20100EA
:10A850002DE9F74F054617468846002900F030815C
:10A8600018F8011B49B92B7B002B00F029812846E1
:10A8700003B0BDE8F04FFFF762BF252940F0C0806C
:10A88000002698F800302D2B424608F1010823D00D
:10A89000302B24D02B2B25D000242A2B02F10101B0
:10A8A00023D13B681A1D1B683A601C440A46137882
:10A8B0002E2B26D101324FF00009104610F8011B53
:10A8C000A1F1300CBCF1090F1DD80A2303FB0913B9
:10A8D000A3F130090246F0E746F00106D1E746F061
:10A8E0000206CEE746F00406CBE711F8013CA3F1DF
:10A8F00030000928DBD80A2202FB0434303C0A4627
:10A90000CBE74FF0000912F8011B01F0FB006828AB
:10A910009046F8D069290ED04AD8582964D006D874
:10A9200025296DD098F80030002B99D19BE7632939
:10A9300062D06429F6D13A68D2F800A0111D8AEAE3
:10A94000EA723960A2EBEA724FF0010B092A5BDC74
:10A95000CB4538BFCB462CB1BAF1000F01DB7207F3
:10A9600000D5013CB30702D5B9F1000F04D0F007C0
:10A9700002D4002C4ED10024BAF1000F52DACAF1F1
:10A98000000A2D212846FFF7F3FE06F00302022AF3
:10A9900005D1B9F1000F02D1002C47D10024CDE937
:10A9A00000464B460A2251462846FFF7F9FEB9E712
:10A9B00073294CD014D87029B4D13B681A1D3A6061
:10A9C000302128461C68FFF7D3FE78212846FFF780
:10A9D000CFFE00220823CDE9003221461022E3E712
:10A9E00075292BD078299DD139680A1D3A60CDE9A7
:10A9F00000464B46102228E03B681A1D19783A6041
:10AA00002846FFF7B5FE8DE70A230BF1010BB2FBD9
:10AA1000F3F29BE7A345AFD220212846013CFFF784
:10AA2000A7FEA6E77107B0D52B21ABE7A345B6D2A9
:10AA300030212846013CFFF79BFEADE73968CDE9A0
:10AA400000460A1D3A604B460A220968ACE73B689B
:10AA50001A1D3A6016F00106D3F800A020D1BAF111
:10AA6000000F03D0504602F00CFB0646B44200D95A
:10AA7000C4B90AF1FF3A1EE028460136FFF778FE16
:10AA80001AF806100029F7D1A642BFF44BAF002CEC
:10AA90003FF448AF20212846013CFFF769FEF3E769
:10AAA0000026EDE720212846013CFFF761FEDDE7A7
:10AAB0002846FFF75DFE1AF8011F0029F8D131E79B
:10AAC00003B0BDE8F08F2DE9F047B0F80690447967
:10AAD000D2F800A09DF8208009FB04F4043C06464F
:10AAE0000AEB0300A0420F4688BFA4EB030A191D1E
:10AAF000C2F800A0B1FBF9F509FB15114DB9A9EB9E
:10AB00000104544528BF5446BAF1000F04D1BDE8F2
:10AB1000F0873668013DF1E704317B197018224651
:10AB2000B8F1000F0ED001461846AAEB040A02F055
:10AB30004CFAD145254436684C464FF0000128BFF9
:10AB40005446E1E71946F0E7FFF7A4BDF8B54679AA
:10AB50000146721E0546002393422D6803D300244C
:10AB6000A64202D8F8BD0133F6E70F682846FFF782
:10AB7000CCFD01343946F3E72DE9F843068ACD1CB4
:10AB80000746FFF79EFD043E35440446B5FBF6F547
:10AB9000F0B14FF48073EDB28380C680013D076051
:10ABA00081464FF00008A84512D23846FFF789FDCC
:10ABB000064648B163790133637108F10108C9F8A9
:10ABC000000007608146EEE72046FFF7BFFF3446EE
:10ABD0002046BDE8F88301210430FFF73FBD10B5E2
:10ABE000012104460430FFF744FD10F0FF0F04D1AB
:10ABF0002046BDE81040FFF7A9BF10BD1FB5039266
:10AC00000022009203AAFFF75EFF05B05DF804FB87
:10AC10001FB503920122009203AAFFF754FF05B06B
:10AC20005DF804FB41DF7047064B10B500241C7033
:10AC3000054B1C60BFF35F8F0449054800F01FF807
:10AC4000204610BDB4190020B8190020E8D2010038
:10AC5000AC19002008B501F091FF18B1BDE808401B
:10AC6000FFF7E0BF20BF40BF20BF08BD83680022C0
:10AC70005A609A60C3E90422DA601A6070470B6870
:10AC80004A684360934208BF0023016008BF4360E5
:10AC90007047436843B10268916852680B4493421D
:10ACA000436004BF002343607047000010B50D49A6
:10ACB000A1F59472914201D800200FE08B1ADB10AD
:10ACC00003EBD3735B1002EBC30452F833308342BF
:10ACD00005D802D204F10802ECE7606810BD2146F5
:10ACE000E8E700BF38D4010008B5FFF7DFFF024BEB
:10ACF000002808BF184608BDFDD20100094B1B788B
:10AD0000062B0CD1084B1B681A0708D1074B186893
:10AD100000F0F000A0F13003584258417047002085
:10AD2000704700BFE00F00F0E40F00F0E80F00F004
:10AD30000F4B1B680A2B03D10E4B1B68012B14D938
:10AD40000D4B1B78062B10D10C4B1B681A070CD12E
:10AD50000B4B186800F0F003302B06D000F0E00039
:10AD6000A0F140035842584170470120704700BF8E
:10AD70003001001034010010E00F00F0E40F00F08B
:10AD8000E80F00F00C4B1B78062B10D10B4B1B6807
:10AD90001A070CD10A4B186800F0F003302B08D0CA
:10ADA00000F0E000A0F140035842584170470020F5
:10ADB00070470120704700BFE00F00F0E40F00F083
:10ADC000E80F00F008B5FFF7DDFF28B1814B824A9C
:10ADD0001B68C3F304231360FFF790FF10B17F4B90
:10ADE0007F4A1A60FFF7A4FF28B17E4B7E4A1B689A
:10ADF000C3F342331360FFF781FF20B17B4AD3686E
:10AE000023F08073D360FFF793FF40B14FF080438E
:10AE10000022C3F80C21C3F81021C3F83825FFF72E
:10AE20006DFF10B1724B03221A60FFF767FF40B14C
:10AE3000704B05221A6001229A6700229A603F2215
:10AE40005A606D4B1B680A2B03D16C4B1B68012B9E
:10AE50000DD96B4B1B78062B09D16A4B1B68190760
:10AE600005D1694B1B6803F0F003502B46D14FF01E
:10AE70008052664BD2F80414C3F82015D2F8081497
:10AE8000C3F82415D2F80C14C3F82815D2F81014FE
:10AE9000C3F82C15D2F81414C3F83015D2F81814CE
:10AEA000C3F83415D2F81C14C3F84015D2F8201496
:10AEB000C3F84415D2F82414C3F84815D2F828145E
:10AEC000C3F84C15D2F82C14C3F85015D2F830142E
:10AED000C3F85415D2F83414C3F86015D2F83814F6
:10AEE000C3F86415D2F83C14C3F86815D2F84014BE
:10AEF000C3F86C15D2F84424C3F870253E4B1B6888
:10AF00000A2B06D13D4B1B681BB9414BFB22C3F8F2
:10AF10001825FFF737FF28B13E4B3F4A1B6803F067
:10AF20004F031360FFF704FF48B14FF08043D3F89D
:10AF30000024D20744BF6FF00102C3F800242E4B57
:10AF40001B68062B08D12D4B1B68062B01BF334A0B
:10AF5000136843F4806313604FF01023D3F800228A
:10AF6000002A03DBD3F80432002B2FDA2C4B01220A
:10AF7000C3F80425D3F80024002AFBD04FF0102298
:10AF80001521C2F80012D3F80024002AFBD04FF09C
:10AF900010231522C3F80422214B1A46D3F80014BB
:10AFA0000029FBD00021C3F80415D2F80034002B8F
:10AFB000FBD0BFF34F8F1B491B4BCA6802F4E06202
:10AFC0001343CB60BFF34F8F00BFFDE7174B184A09
:10AFD0001A6008BD240300104035014074C00740CA
:10AFE0000DF0ADBA440200103C050040F0ED00E069
:10AFF000A005004010560040300100103401001040
:10B00000E00F00F0E40F00F0E80F00F000C0004097
:10B0100000F0004058020010E40E00403C170040D1
:10B0200000E0014000ED00E00400FA052C120020D1
:10B030000090D003054A4FF0A043105CD3F80435CC
:10B0400023FA00F0C04300F001007047F2D701007E
:10B05000044B1A5C012393404FF0A042C2F80C3518
:10B06000704700BFF2D70100044B1A5C01239340E4
:10B070004FF0A042C2F80835704700BFF2D7010078
:10B0800008B50020FFF7F0FF0120FFF7EDFF0220D9
:10B09000FFF7EAFF0320BDE80840FFF7E5BF08B56A
:10B0A0000020FFF7D5FF0120FFF7D2FF0220FFF7B6
:10B0B000CFFF0320BDE80840FFF7CABF074A4FF0A3
:10B0C000A041105CD1F804350122824022EA03003D
:10B0D0001340C1F80805C1F80C357047F2D70100DC
:10B0E0000D2809D00E2809D00F2809D010280CBF30
:10B0F00003204FF0FF307047002070470120704759
:10B1000002207047C20708B501460CD54FF0A04396
:10B110000322C3F84427C3F84827C3F84C27C3F8D1
:10B120005027FFF7ADFF8B070AD54FF0A0430C2245
:10B13000C3F83427C3F83827C3F83C27C3F840279F
:10B1400008BD000038B5074C051E04F1080318BF00
:10B150001C4623682BB11A6822605B682846984712
:10B16000F7E738BDC419002020B9054B01225A70F9
:10B17000FFF7E8BF012802D1014A9070F8E7704755
:10B18000BC19002020B9034B01225A70FFF7DABF27
:10B19000704700BFBC19002038B50B4C237883B929
:10B1A0000A486360A3602361E36000F0C7F80546C6
:10B1B00001F0E4FC08B900F0CDF801232370284623
:10B1C00038BD8525FBE700BFBC19002069B101002F
:10B1D00037B50B4C00230DF107008DF80730FFF752
:10B1E000E3F9E368013BE360E56815B900F0C4F8F2
:10B1F000A5709DF80700FFF7FBF903B030BD00BF55
:10B20000BC190020012813B509D018B103281CD09F
:10B2100002B010BD0F4B0122C3F88020F8E70E4C9E
:10B2200000230DF107008DF80730FFF7BDF92378F3
:10B230000BB9FFF7B1FFE3689DF807000133E36046
:10B240000123A370FFF7D4F9E2E700F083F8FFF7DA
:10B25000BFFFDDE700E100E0BC1900201FB5037867
:10B260008DF800304368019383688DF80830C36817
:10B270000393054A054B684653F8213052F82110D4
:10B28000984705B05DF804FBD0190020D4190020C0
:10B290001FB503788DF800304368019383688DF8FB
:10B2A0000830C3680393054A054B684653F82130BC
:10B2B00052F82110984705B05DF804FBD019002022
:10B2C000D4190020F0B5184B077891F81DE043F829
:10B2D0002720164B16460A6943F82720144B03F81B
:10B2E00007E00C4684460FCC89B06D460FC594E844
:10B2F0000F0085E80F000497BEF1000F0AD0002E62
:10B300000C4A694608BF32460CF1040000F064FDA7
:10B3100009B0F0BD002E084A694608BF32460CF15C
:10B320000C0000F067FBF3E7D4190020D0190020CF
:10B33000D81900205DB2010091B20100044A1379CE
:10B3400023B901211060918018467047852070470D
:10B35000DC190020074B1A68D2075FBFC02283F8B0
:10B36000002301221A604FF080430122C3F8182500
:10B37000704700BF00E100E0044B01221A604FF06B
:10B380008042D2F81834DB03FBD470470C00004035
:10B39000154B07B51A687AB100221A601B68009332
:10B3A000009B4FF080430122C3F808230F4B5879CC
:10B3B00010B95A711B6898470D4B1A6882B1002268
:10B3C0001A601B680193019B4FF080430222C3F86F
:10B3D0000823064B1B68012003B05DF804EB1847F7
:10B3E00003B05DF804FB00BF00010040DC19002041
:10B3F0000401004000F1804000F5C040002382B00D
:10B40000036003680193019B02B07047800000F164
:10B41000A040D0F8003723F44033C0F80037D0F80C
:10B42000003743EA0141C0F800177047054B4FF061
:10B43000FF32072843F8202084BF1B1883F84820D8
:10B44000704700BFE419002010B5174C94F858302D
:10B4500043BB04F130032021FF22013911F0FF0129
:10B4600003F8012BF9D1C8B2FFF7E0FF01310C2935
:10B47000F9D1042200210D4801F0D0FD0C4BC0226F
:10B4800083F8062340221A604FF4BE70FFF7B2FF24
:10B49000084B4FF00042C3F80423012384F85830CE
:10B4A000002010BD0820FCE7E4190020381A002015
:10B4B00000E100E000600040034B93F858000030CA
:10B4C00018BF0120704700BFE4190020F0B5374BCA
:10B4D0001C1894F93040002C1C4664DA8D78C5F3B2
:10B4E0004005002D0BBF082300230C260826B3427D
:10B4F00001D10420F0BD54F8237001373FD1261844
:10B5000044F8232086F8303015B9E21882F8480054
:10B510008A78550713D4D60733D5820002F1A042AA
:10B52000D2F8005725F00205C2F80057204EC50892
:10B5300000F007070122BA40775D3A4372558A78D6
:10B540000D7812F0020225D09B0003F1804303F531
:10B55000C0430202D3F8101521F4473121F44071A1
:10B56000C3F810152D04D3F8101502F4F85205F4A1
:10B5700040352A430A43C3F810250020BAE70133B7
:10B58000B5E74D7800F5E0724FF0A046AD0046F803
:10B590002250CBE7083B234493F8501041EA85152D
:10B5A00083F85050E9E70820A4E700BFE419002021
:10B5B000381A002038B51F4C251895F93020072A75
:10B5C00017DD224492F84810890903290CD14FF065
:10B5D000A043D3F81035C34013F0010F08BF022178
:10B5E000BDE83840FFF712BF012914BF0321022133
:10B5F000F6E7D3B2072B1CD8930003F1804303F581
:10B60000C043D3F8100540F00100C3F8100502F163
:10B610004000800080B2FFF7EDFE51B195F9303067
:10B6200054F823302BB1012303FA02F2024BC3F882
:10B63000042338BDE4190020006000404FF0A0430F
:10B64000D3F8103523FA00F000F001007047000035
:10B650002DE9F04F85B000245A4D01944FF48072CB
:10B66000012102F1804303F5C04390B21B68012B16
:10B6700006D1D5F804330B4202D0FFF7BBFE0C43D2
:10B680000432B2F5907F4FEA4101EAD14E4B1B687C
:10B69000012B0AD14FF4BE70FFF7ACFE4FF0A04370
:10B6A00044F00044D3F81035019314F0FF0F1AD082
:10B6B000464F00250126344210D0AB0003F18043F1
:10B6C00003F5C043D3F81005D3F8101557F825300B
:10B6D00023B1C1F30141C0F3042098470135082D7F
:10B6E0004FEA4606E7D1002C64DA00224FF0FF3320
:10B6F000CDE90223354D01274FF0000A344E544660
:10B700004FF0A04816F9012B531C46D0D2B222F0BC
:10B71000C0094FEAD90104A8084402F0070310F851
:10B7200004CC07FA03F31CEA030F36D005EB090C2F
:10B7300092099CF930C055F82CB0BBF1000F0AD12A
:10B74000032A2AD10DF1080E1EF801C04CEA030CA1
:10B750000EF801C001E0032AF4D009F5E07110F8F9
:10B760000C0C58F821101842C1F3014105D00229F0
:10B7700013D1032A0BD1114604E003290DD1032A6A
:10B7800005D102214846FFF741FE0134E4B2BBF186
:10B79000000F02D011464846D8470AF1010ABAF113
:10B7A000040FAFD134B14FF0A043019AD3F8103554
:10B7B000934202D105B0BDE8F08F0193029B039341
:10B7C0009AE700BF006000407C610040E41900205F
:10B7D000341A0020014B1B68184700BF401A002094
:10B7E0000E4B984237B50D4602D0002003B030BD55
:10B7F00000230DF107008DF80730FEF7D5FE084B4A
:10B800001C7914B901221D601A719DF80700FEF71A
:10B81000EFFE002CE9D01120E8E700BF0020004037
:10B82000401A0020034B984201BF034B00221A60CC
:10B830001A71704700200040401A00200023435036
:10B8400082B043580193019B02B070470A4610B57D
:10B850004FF48E71FFF7F2FF136A9168C95C136AA7
:10B8600001331362C0F81C1510BD8B690A4610B570
:10B870004FF4847123B9FFF7E1FFD0F8183510BDFC
:10B88000FFF7DCFF536AD168D0F81805C854536A33
:10B8900001335362F3E700001FB501238DF8003038
:10B8A000044BCDE90110D3E900126846904705B07A
:10B8B0005DF804FB481A002030B54C4AD2F8043336
:10B8C00013F4007F85B015464FD0D2F82431002BF9
:10B8D0004BD04FF492711046FFF7B0FF4FF4017355
:10B8E000C2F80833424B93F8291009B9012151607D
:10B8F0003E4902228DF80020D1F88024C1F880242E
:10B9000003929A690292DA6801920022C3E9062240
:10B910006846D3E9001290473448D0F81C315BB137
:10B9200033490A6A4B699A420A464BD291F8283049
:10B93000002B47D1FFF78AFF2C4AD2F8443193B14C
:10B940004FF4A2711046FFF779FF294B93F82910A5
:10B9500009B1012111609A692AB100229A61586ADD
:10B96000D968FFF799FF05B030BDD5F804335B0700
:10B97000D2D5D5F80831002BCED01D4C1B4821461E
:10B98000FFF773FF636AA2699A422346C4D1E26952
:10B99000E1684AB12369E3600023606AA261E36160
:10B9A0006362FFF779FFB7E794F829200AB901220B
:10B9B0006A600E4A4FF40170C2F8080300229A61CF
:10B9C000586AEEE74FF48E710848FFF737FF516968
:10B9D0000029B1D00023029191688DF800300191C7
:10B9E00053616846D2E900139847A5E7002000405C
:10B9F000481A00202DE9F843564F047991462C222D
:10BA000002FB0472064692F82A200D46002A40F0F6
:10BA10009A8051490068FFF7E3FE8046002840F015
:10BA2000958029683368481C0BD04FF0A040012254
:10BA30008A40C0F8082501F5E0724FF0030C40F889
:10BA400022C06868421C1FBF00F5E0724FF0A04C96
:10BA50004FF0000E4CF822E0AA6995F814C0C3F824
:10BA600024256A7DBCF1010F4CEA0202C3F86C2563
:10BA7000C3F81405C3F80C151DD1AA68511C1FBFCB
:10BA800002F5E0714FF0A0404FF0000C40F821C0EB
:10BA9000E968481C0BD04FF0A04C01208840CCF83E
:10BAA000080501F5E0704FF0030E4CF820E0C3F8F4
:10BAB0000815C3F810252C236343FA18C2F8049024
:10BAC0002A69FA50B9F1000F2AD04FF48E7130680C
:10BAD0002D7FFFF7B3FE30684FF4A271FFF7AEFE83
:10BAE00032681E4BC2F80433120B51B20029A8BFB2
:10BAF00001F160404FEA4513BABF194802F00F0543
:10BB000000F56140DBB2B4BF435580F8003302F06A
:10BB10001F02012303FA02F24909124B43F82120C4
:10BB200033680422C3F800252C2303FB047300228E
:10BB3000C3E9062283F829205A61012283F82A20CA
:10BB40004046BDE8F8834FF00808F9E74FF01108C8
:10BB5000F6E700BF481A0020B9B8010080000200D3
:10BB600014ED00E000E100E0F8B5047900682D4D27
:10BB70000023C0F800352C2303FB04535B6873B12A
:10BB8000294BC0F80833020B53B201215B0902F0C4
:10BB90001F0201FA02F22033244941F82320D0F891
:10BBA0000C65D0F81415D0F80835D0F810254FF0F2
:10BBB000FF37BE42C0F8147518BF06F5E076C0F82E
:10BBC0000C75C0F80875C0F810751EBF4FF0A0477F
:10BBD0004FF0020C47F826C04E1C1FBF4FF0A04686
:10BBE00001F5E071022746F82170511C1FBF4FF08C
:10BBF000A04102F5E072022641F822605A1C1FBFE4
:10BC000003F5E0734FF0A042022142F82310FFF742
:10BC100009FE2C2303FB0454002384F82A306360BC
:10BC2000F8BD00BF481A00208402020000E100E0D5
:10BC30002DE9F047214F06794FF02C0909FB0674D6
:10BC400080466569002D37D16261A16025624FF49D
:10BC50008E71006884F82850FFF7F0FDD8F80000D6
:10BC6000012383602146FFF7F1FD6368A14693B984
:10BC7000D8F800A0226A63699A4212D3D8F800303B
:10BC8000D3F81C21002AFBD00122DA602C2303FB0D
:10BC90000676002373612846BDE8F08794F82830C3
:10BCA00043B9DAF81C31002BF8D049465046FFF76B
:10BCB000CDFDDFE70F25E9E71125ECE7481A002065
:10BCC0000023435082B043580193019B02B0704758
:10BCD0001FB501238DF80030044BCDE90110D3E9E5
:10BCE00000126846904705B05DF804FB741A002006
:10BCF0007FB5374AD2F82461002E48D010464FF461
:10BD00009271FFF7DDFF02238DF80030D2F8803406
:10BD1000C2F880340393D2F83C3502932D4BDA6895
:10BD200001920022C3E906226846D3E90012904737
:10BD3000274AD2F844317BB14FF4A2711046FFF785
:10BD4000BFFF244B996939B10021C3E90611D968B5
:10BD5000D2F83C05FFF7BCFF1D4AD2F82031A3B151
:10BD60004FF490711046FFF7ABFF1A4B596961B160
:10BD7000D2F84C150291002299688DF800200191AB
:10BD80005A616846D3E90012904704B070BDD2F8FA
:10BD90001031002BCCD04FF488711046FFF790FF84
:10BDA0000C4BD2F83C0599698842C1D1DC69D9684D
:10BDB00064B1D2F8005225F02005C2F800521A6989
:10BDC0009C61DA60DE61FFF783FFB1E79C61FAE70F
:10BDD00000200040741A00202DE9F8435A4F0679DC
:10BDE0009146242202FB0672044692F820200D465A
:10BDF000002A40F0A28055490068FFF7F1FC804618
:10BE0000002840F09D8029682368481C0BD04FF023
:10BE1000A04001228A40C0F8082501F5E0724FF0E9
:10BE2000030C40F822C06868421C1FBF00F5E07296
:10BE30004FF0A04C4FF0000E4CF822E0AA6995F8A4
:10BE400014C0C3F824256A7DBCF1010F4CEA02023C
:10BE5000C3F86C25C3F80C15C3F814051DD1AA68E6
:10BE6000511C1FBF02F5E0714FF0A0404FF0000CD5
:10BE700040F821C0E968481C0BD04FF0A04C0120CD
:10BE80008840CCF8080501F5E0704FF0030E4CF83F
:10BE900020E0C3F80815C3F8102524237343FA18CB
:10BEA000C2F804902A69FA50B9F1000F34D04FF467
:10BEB000887120682D7FFFF703FF4FF49071206891
:10BEC000FFF7FEFE4FF492712068FFF7F9FE20683D
:10BED0004FF4A271FFF7F4FE22681D4BC2F8043341
:10BEE000120B51B20029A8BF01F160404FEA45137F
:10BEF000BABF184802F00F0500F56140DBB2B4BFCD
:10BF0000435580F8003302F01F02012303FA02F2C6
:10BF10004909114B43F8212023680822C3F8002562
:10BF2000242303FB06730022C3E906225A6101227F
:10BF300083F820204046BDE8F8834FF00808F9E771
:10BF40004FF01108F6E700BF741A0020F1BC0100A1
:10BF50001003020014ED00E000E100E0F8B5047900
:10BF600000682D4D0023C0F80035242303FB045343
:10BF70005B6873B1294BC0F80833020B53B201213F
:10BF80005B0902F01F0201FA02F22033244941F852
:10BF90002320D0F80C65D0F81415D0F80835D0F867
:10BFA00010254FF0FF37BE42C0F80C7518BF06F5DC
:10BFB000E076C0F81475C0F80875C0F810751EBF9B
:10BFC0004FF0A0474FF0020C47F826C04E1C1FBF91
:10BFD0004FF0A04601F5E071022746F82170511C90
:10BFE0001FBF4FF0A04102F5E072022641F8226027
:10BFF0005A1C1FBF03F5E0734FF0A042022142F824
:10C000002310FFF70FFC242303FB0454002384F8C0
:10C0100020306360F8BD00BF741A002010030200D6
:10C0200000E100E001F06043B3F1005F2DE9F04171
:10C03000074632D11B4B0679242505FB0635984669
:10C040006C6964BB6A61A96000684FF49071FFF786
:10C0500037FE4FF4AC713868FFF732FE3B686A690F
:10C06000A968C3F84415C3F8482501229A606A6894
:10C0700062B9D3F82021D3F8584152B9002CF8D036
:10C080000F24242303FB0686002373612046BDE8AA
:10C09000F081002C18BF0F24F3E71024F6E71124D9
:10C0A000F4E700BF741A00200220FFF707B8000071
:10C0B0002DE9F04781460D46FFF712F803280446A4
:10C0C00004D8012D04D025B3022D2FD0BDE8F08770
:10C0D000194D47003A18A918AE5C4A7852B1DFF8FA
:10C0E0006880164842464FF40041FEF707FA08B947
:10C0F00088F800903B192B449A78114B1A55002E62
:10C10000E4D0104B1B68002BE0D03046BDE8F04770
:10C1100018470A48FEF738FA074B04EB4402134469
:10C120009E78074B1B5DB342D0D1E8E7024B00EB92
:10C1300040041C446678E2E7FC1A0020BC1A002088
:10C14000151B0020101B0020981A002002210078E7
:10C15000FFF7AEBF08B5094B1B7853B10020FEF7BF
:10C1600083FF0120FEF780FF0320BDE80840FEF7B3
:10C170007BBFBDE80840FEF783BF00BF991A0020CF
:10C18000F8B57B4C237805461BB100232370FFF7DD
:10C19000E1FF172D00F28880DFE805F00C17174348
:10C1A00054657680888D888D959A9A9A9A9AC4C992
:10C1B000D1D9E4E4FFF7CEFF6E48FEF7E5F96E4B08
:10C1C000002204461A702046F8BD0020FEF732FF18
:10C1D000F8B10020FEF748FF022D0CBF4FF4E161DB
:10C1E0004FF47A61644B1D704FF400404FF4FA74C1
:10C1F0000025E0FB01454FF47A72002320462946D2
:10C2000000F01EFE002201465A48BDE8F840FEF745
:10C2100075B9FEF71DFF022D0CBFC8214FF4C87180
:10C22000E0E70020FEF706FF40B10020FEF71CFF0C
:10C230004FF44871504B03221A70D5E7FEF708FF00
:10C24000C821F7E70020FEF7F5FE38B10020FEF721
:10C250000BFF4FF47A61484B0422EDE7FEF7F8FE3E
:10C260004FF4C871F7E70020FEF7E4FE48B1002064
:10C27000FEF7FAFE404B05221A7041F69A11002291
:10C28000C2E7FEF7E5FEF5E70020FEF717FF3A4BA1
:10C2900006221A70002240F6CD41B5E70020FEF7D5
:10C2A000D7FE354B07221A7000248CE7012020703E
:10C2B000FEF704FFEEE701202070FEF7FFFE0022EC
:10C2C0004FF48041A0E7FEF7EAFE2B4B0C22EAE791
:10C2D0002A482B4EFEF758F9D5F1110504461CD01B
:10C2E000D8B9012D13D0C8235D434FF400474FF454
:10C2F000FA7000214FF47A720023C7FB050100F0A9
:10C300009FFD224601461D48FEF7F8F8044602202C
:10C31000FEF79EFE0123337055E70220FEF7A4FED0
:10C320000023F8E7FFF716FF134B1222BBE7FFF7D6
:10C3300011FF0020FEF78CFE0F4B1322B3E7FFF72F
:10C3400009FF0120FEF784FE0B4B1422ABE7FFF739
:10C3500001FF0020FEF77CFE0120FEF779FE064B70
:10C360001522A0E7FEF79BFE034B1D709CE700BF64
:10C370000C1B0020DC1A0020141B00209C1A00203B
:10C38000991A0020044B1B68DB0703D5034B187870
:10C39000FFF7F6BE704700BF081B0020141B0020EB
:10C3A000044B1B6813F0010301D0FFF7E9BE1846E8
:10C3B000704700BF081B002038B51C4B18601C4B91
:10C3C00010F00204054619601AD01A4B1A480E22C2
:10C3D0001A700F22DA7010229A7111225A720421F7
:10C3E00040F26662FDF786FD044648B9FDF7D6FDCA
:10C3F000044628B90146114A1148FEF76DF8044673
:10C40000EB0711D50120FEF77DFE6CB921460D4AE0
:10C410000D48FEF761F8044630B90C4A0C4801217A
:10C42000BDE83840FEF758B8204638BD081B00204C
:10C43000101B0020FC1A002018D801004DC101007B
:10C440003CD8010085C3010040D80100A9C001000B
:10C4500038D8010072DF704773DF704774DF7047B0
:10C46000024B1878421C1A70704700BF191B00203D
:10C4700030B593B05923ADF80030FFF7F1FF1E49F6
:10C480001E4C8874FFF7ECFFC874FFF7E9FF0875CE
:10C49000FFF7E6FF00254875172302913C22002193
:10C4A00003A8ADF8043000F0B9FD04231822294692
:10C4B00020468DF80F308DF80C50CDF830D000F0BC
:10C4C000ADFD0F4A65600523237052F8041B2575E6
:10C4D000A02303A8A360A58100F0FEF808B1FDF732
:10C4E00073FD064A06490748FFF7B4FF08B1FDF798
:10C4F0006BFD13B030BD00BF411200201C1B00209B
:10C50000301200204012002083B54FF4004100207B
:10C51000FDF7FAF808B1FDF757FDFDF72BF8FDF729
:10C52000ABFF08B1FDF750FD00210120FFF744FFEC
:10C5300008B1FDF749FDFEF777FB08B1FDF744FDB3
:10C5400000F0DEFA08B1FDF73FFD002301A901204C
:10C55000019300F05DFB08B1FDF736FD01A800F086
:10C5600005FC08B1FDF730FDFFF782FF184B1948B5
:10C5700019491A4E1A4CC01AC008000440F00300B2
:10C58000FDF786FA374644F0010401213078FFF7C1
:10C5900063FF08B1FDF718FD0220FFF701FF08B1A6
:10C5A000FDF712FD41F288354FF47A40A047013D76
:10C5B000FAD1FDF703F908B9FEF74CFB3878FFF71D
:10C5C0004DFF08B1FDF700FDFFF752FFDDE700BFAB
:10C5D00018D1010040D1010056D8010040120020BE
:10C5E00050D801006DDF704779DF70477DDF7047FD
:10C5F00064DF70472DE9F04F85B000250E9CBDF833
:10C600003CB027880191804691469A462E46B8F85C
:10C610000020B2420CDC3DB12288013AD21B92B21A
:10C62000FF2A3BD80AF80720002005B0BDE8F08FAC
:10C63000D8F8042052F82600039000220DF10B01D7
:10C6400003A8FFF7D5FF0028EFD19DF80B204A453E
:10C6500022D12288002D14BF0020022002EB090104
:10C66000014459451ADC45B9013292B2019B22803E
:10C670000AF8023022880132228022880DF10B0153
:10C68000524403A8FFF7B4FF0028CED121889DF8BB
:10C690000B200A44228001250136B8E70C20C4E7AC
:10C6A0002DE9F341089CBDF824501746CDE900451B
:10C6B000022206469846FFF79DFF50B943461022D6
:10C6C00039463046CDE9084502B0BDE8F041FFF7F4
:10C6D00091BF02B0BDE8F0812DE9F04F002316882C
:10C6E000138090F82D3085B007460D46144653B39D
:10C6F000082E01D80C2027E102A8FFF773FF0028BD
:10C7000040F0228123880822EA54238801339BB217
:10C710001B222380EA542088013080B22080062228
:10C720000DF10901284400F050FC23889DF80820F1
:10C7300006339BB212F0FE0218BF01222380EA5496
:10C74000238801332380BB78FBB123880433B342B1
:10C75000D0D802A8FFF748FF002840F0F5802388D2
:10C760000322EA54238801339BB219222380EA541E
:10C770002388BDF8082001339BB2E9182380EA54CE
:10C78000120A4A70238802332380FA789AB12388E8
:10C79000D91CB142AED80221E954238801339BB29F
:10C7A00001212380E95423880B449BB22380EA545F
:10C7B00023880B4423807A68AAB12388D91CB1420C
:10C7C00098D8022192F90020E954238801339BB2C2
:10C7D0000A212380E954238801339BB22380EA5441
:10C7E0002388013323803B89002B40F0A1803B8AC2
:10C7F0005BB1CDE900462B460722032107F110006B
:10C80000FFF74EFF002840F09F803B8B5BB1CDE9E6
:10C8100000462B461522142107F11800FFF740FFB0
:10C82000002840F091803A6A002A40F09080D7F8C2
:10C830002480B8F1000F30D0B8F804302188981C5B
:10C840008A1C0244B2423FF655AFFE283FF652AF73
:10C8500003336B54238801339BB2FF222380EA54B5
:10C86000238801339BB22380B8F80020EA54E918EA
:10C87000120A4A702088023080B22080B8F8042062
:10C880005AB1D8F8081000296BD0284400F09DFB5D
:10C890002388B8F804201344238097F82C30002B09
:10C8A00040F09A80387800284ED03B88012B58D031
:10C8B000228802F1020CB4453FF61CAF012805D1D5
:10C8C0007B78023313449E42FFF414AF023EB61A43
:10C8D000B6B202A905EB0C00ADF80860FFF786FEC2
:10C8E00090BB3978BDF80820022900F0BA807B7827
:10C8F000934202D3B24240F2B280012940F0B380A9
:10C900009BB29E42C0F0AF80ADF808300821BDF860
:10C910000830FE2B3FF6EEAE22880133AB5422885E
:10C92000013292B22280A9542288134423800BE062
:10C93000CDE900462B460622022107F10800FFF749
:10C94000AFFE00283FF453AF05B0BDE8F08FB4F858
:10C9500000C00CF10603B3423FF6CCAE11880529A6
:10C9600001D80720F0E76FF4486E01EB0E039BB28D
:10C970004FF27D3E7345F4D95388052BF1D96FF4FE
:10C980004860181880B27045EBD94FF6FF708142AD
:10C9900003D0834201D09942E3D8052305F80C3037
:10C9A000238801339BB212212380E9542388013369
:10C9B0009BB223801188E954E818090A4170238842
:10C9C00002339BB223805288EA54E918120A4A7053
:10C9D0002388023323802AE7BB6A002BC1D04FF0A3
:10C9E00000094FF00C0A4FF0160B97F82C305FFA45
:10C9F00089F293427FF656AFB96A0AFB02F201EB65
:10CA00000208B8F80430981CFE283FF673AE208860
:10CA100003332B54238801339BB2238005F803B0E2
:10CA2000238801339BB223808A5AEA54E918120AF8
:10CA30004A702088023080B22080B8F804205AB1B1
:10CA4000D8F8081000298CD0284400F0BEFA2388BA
:10CA5000B8F804201344238009F10109C5E709212E
:10CA600055E7B242FBD9ADF808604FE710DF7047D9
:10CA700013B5044609496846FEF701F9019808B95B
:10CA800002B010BDD0E900312046984718B1684681
:10CA9000FEF7FFF8F2E71120F2E700BF74D80100BB
:10CAA00013B5044607496846FEF7E9F8019B0BB940
:10CAB00002B010BD2046D3E9002190476846FEF73A
:10CAC000E8F8F3E78CD801000B4991F816335A09BE
:10CAD000EC231341DB0706D5084B9A683AB94FF4AB
:10CAE00080030B60704742F20200FDF76DBA1A68CE
:10CAF00042F480021A60704700E100E0A0190020B3
:10CB0000F7B5194F3C7864BB184E012520463570A7
:10CB1000FFF7AEFF112821D02046FFF7C1FF144BCD
:10CB20008DF80340186801900DF10300FDF73CFDFE
:10CB3000104901A8FFF79AFF0446B0FA80F04009B7
:10CB400038709DF80300FDF753FD3CB90A4B347073
:10CB50001C70FFF7B9FF2846FFF7A2FF204603B07D
:10CB6000F0BD0824FAE700BF541B0020531B00202F
:10CB70006ED80100E59F0100551B0020014B18787D
:10CB8000704700BF541B002007B508496846FEF7F0
:10CB900076F8019B13B903B05DF804FBD3E90020DC
:10CBA00090476846FEF775F8F3E700BF80D80100AC
:10CBB000FFF7EABF60DF704769DF704761DF7047EA
:10CBC00030B5114B1B7891B0E3B1104D34240DF109
:10CBD000020103A8ADF80240FFF7F0FF70B9294643
:10CBE00001A8FEF74CF8029B002BF0D003A8D3E974
:10CBF0000021904701A8FEF74CF8F4E7052801D082
:10CC0000FDF7E2F911B030BD561B0020CCDA01006F
:10CC100030B5054685B00C46002900F095804B4B99
:10CC20000B600C22002101A800F0F8F901238DF817
:10CC3000063022688DF80450062301A92020ADF8A3
:10CC40000830FFF7B9FF60B1FEF74EF8404A414B9C
:10CC500041499B1ADB081B04024643F00100FCF724
:10CC60001BFF0C22002101A800F0D8F90023226844
:10CC70008DF8053001A94020FFF79EFF60B1FEF757
:10CC800033F8334A334B35499B1ADB081B04024601
:10CC900043F00100FCF700FF0C22002101A800F086
:10CCA000BDF9002322688DF8043001A90120FFF7A7
:10CCB00083FF60B1FEF718F8254A264B28499B1AD6
:10CCC000DB081B04024643F00100FCF7E5FE0C22E2
:10CCD000002101A800F0A2F9F8232268019301A91C
:10CCE000A120FFF769FF60B1FDF7FEFF184A194B5D
:10CCF0001C499B1ADB081B04024643F00100FCF7A9
:10CD0000CBFE0C22002101A800F088F99DF8043028
:10CD100022686FF3000301A9A0208DF80430FFF70B
:10CD20004BFF034668B1FDF7DFFF094A094B0E4987
:10CD30009B1ADB081B04024643F00100FCF7ACFE23
:10CD40000023184605B030BD0E23FAE7101200206C
:10CD500018D1010058D10100A0D80100E6D8010087
:10CD600032D901007ED90100CFD90100F8B50646BD
:10CD70000768FFF71FFF3368BB4205461DD9194BF3
:10CD8000194C1A49E41AE408240444F00204204629
:10CD9000FCF77EFE336816493A462046FCF785FECE
:10CDA0004FF080533268D3F80C3112499B0203F1E3
:10CDB00000539A1A2046FCF76FFE25B90E4B01224C
:10CDC0001A702846F8BD2846FDF78EFF054A064B27
:10CDD0000A499B1ADB081B04024643F00100FCF7DA
:10CDE0005BFEEEE718D1010058D1010022DA010004
:10CDF00051DA010082DA0100561B0020ACDA010092
:10CE00004BDF70471FB50D4C01A8FFF7F9FF70B954
:10CE1000214602A8FDF733FF039B002BF4D00198B5
:10CE2000D3E90021904702A8FDF733FFF4E7052876
:10CE300001D0FDF7C9F804B010BD00BFE4DA01006D
:10CE400053EA020C61D02DE9F04BB3FA83F51E00D2
:10CE500007BFB2FA82F502FA05F403FA05F41646A2
:10CE6000C5F120051EBF22FA05F73C43203556EADE
:10CE7000044C4FEA144418BF0134A3464FF0000994
:10CE8000C846904271EB030C39D3094207BFB0FA90
:10CE900080F700FA07F6B1FA81F701FA07F6C7F151
:10CEA00020071EBF20FA07FC46EA0C062037B6FB17
:10CEB000FBFC7F1B103F07F01F04C4F120060CFA97
:10CEC00004F42CFA06F644BF34460026202FA4BFF3
:10CED0002646002454EA060C08BF012418EB040877
:10CEE00049EB0609A4FB027CC01B06FB02CC04FB39
:10CEF00003CC71EB0C01904271EB030CC5D20B46D5
:10CF0000024649464046BDE8F08BB2FBF3F2000012
:10CF10007F2805D8034B185C034B5B5C18407047B7
:10CF200000207047FCDA01007CDB0100A0F1610306
:10CF3000192B98BF20387047A0F14103192B98BFD7
:10CF4000203070477F2805D8034B185C034B5B5C8F
:10CF50001840704700207047FCDA01007CDB0100BC
:10CF6000A0F16103192B98BF20387047A0F141034D
:10CF7000192B98BF203070477F299ABF017001207C
:10CF80006FF02E0070475AB10A787F2A0AD800B194
:10CF90000260002119605960501A18BF01207047C3
:10CFA000002070476FF02E007047000008B5034B5B
:10CFB0005B689B681B68984708BD00BF581200203B
:10CFC00008B50921FFF7F2FF08BD844640EA0103D6
:10CFD00013F0030F18D18446202A0BD32DE9F00754
:10CFE000B1E8F807A0E8F807A2F12002202AF7D25A
:10CFF000BDE8F007042A07D351F8043B40F8043B8E
:10D00000A2F10402042AF7D2002A05D011F8013B4C
:10D0100000F8013B013AF9D1604670478446002A86
:10D020002DD010F0030F04D000F8011B013A26D0D8
:10D03000F7E7C9B241EA012141EA0141202A12D3AE
:10D04000A2F120022DE9F0030B460C460D460E46D8
:10D050000F4688468946A0E8FA03203AFBD2BDE88D
:10D06000F00320320BD0042A05D340F8041B043A05
:10D0700005D0042AF9D200F8011B013AFBD1604621
:10D08000704700F1010110F0030F11D010F8012BCF
:10D09000002A23D010F0030F0AD010F8012B002A29
:10D0A0001CD010F0030F03D010F8012B002A15D06C
:10D0B0002DE970004FF001324FF0803350F8044BEF
:10D0C000A4EB020525EA04051D4000D1F6E7A0F116
:10D0D000040070BC10F8012B002AFBD1A0EB01006A
:02D0E000704797
:08D0E40085B10100000000000D
:08D0EC0005B201000000000084
:10D0F400C1CB01000000000005CE010000000000CB
:10D10400B01200207813002080130020B8120020F1
:04D1140018000000FF
:10D11800FCD701000000000002D801000000000058
:10D1280009D80100000000000DD80100000000002F
:10D1380012D8010000000000DDD101000000030347
:10D14800F6D701000000000098D801000000030392
:10D15800D8DA010000000303F0DA0100000003033D
:08D16800F4D2010000000000F8
:10D17000A0D1010000000000ACD101002412002069
:10D18000FFFFFFFFFFFFFFFFFFFFFFFFFFFFFFFFAF
:10D1900000000000000000000000D60106010000B1
:10D1A000DD940100419501008D9401007561727458
:10D1B0005F6C6F675F6261636B656E6400000000A7
:10D1C000A41700207F000000241800204261636B38
:10D1D000656E647320666C75736865640061707059
:10D1E0000000000017D2010060D201001FD2010030
:10D1F00068D2010070D2010078D2010080D2010013
:10D2000088D2010090D20100202530327800202001
:10D2100020007C002563001B5B306D002573001B24
:10D220005B313B33316D0025734C6F677320647243
:10D230006F70706564202825642925730D0A003CF1
:10D2400025733E2025733A200000000000000000F6
:10D25000B6D2010098D20100A0D20100A5D20100EF
:10D260001B5B313B33306D001B5B313B33326D0058
:10D270001B5B313B33336D001B5B313B33346D0043
:10D280001B5B313B33356D001B5B313B33366D002F
:10D290001B5B313B33376D007761726E696E6700DF
:10D2A000696E666F0064656275670000441800204F
:10D2B000466174616C206572726F72005379737489
:10D2C000656D207265736574000000000000000049
:10D2D0000338FDD87047303132333435363738397A
:10D2E0004142434445460000ECD00100ECD001002F
:10D2F000040000007077725F6D676D7400556E6B8F
:10D300006E6F776E206572726F7220636F64650056
:10D310000000000038D401000100000044D40100E6
:10D320000200000062D401000300000083D4010069
:10D330000400000096D4010005000000A7D40100FD
:10D3400006000000BBD4010007000000D3D4010098
:10D3500008000000EBD401000900000003D5010023
:10D360000A0000001CD501000B00000034D50100AC
:10D370000C0000004BD501000D0000005FD501003E
:10D380000E00000071D501000F00000080D50100E3
:10D390001000000094D5010011000000ABD5010081
:10D3A00012000000BAD5010013000000CFD5010023
:10D3B00080000000E3D501008100000004D60100D8
:10D3C0008200000020D60100830000003CD601004E
:10D3D000840000005AD60100850000007BD60100C1
:10D3E00086000000A0D6010090000000B7D6010022
:10D3F00091000000D5D6010092000000F3D6010094
:10D400000082000008D701000182000026D7010039
:10D410000282000042D70100008400005ED70100B4
:10D420000184000082D7010002840000ACD7010013
:10D4300003840000D1D701004E52465F5355434349
:10D44000455353004E52465F4552524F525F53561A
:10D45000435F48414E444C45525F4D495353494EFA
:10D4600047004E52465F4552524F525F534F46540B
:10D470004445564943455F4E4F545F454E41424CEB
:10D480004544004E52465F4552524F525F494E54FA
:10D4900045524E414C004E52465F4552524F525FEC
:10D4A0004E4F5F4D454D004E52465F4552524F52D2
:10D4B0005F4E4F545F464F554E44004E52465F45B7
:10D4C00052524F525F4E4F545F535550504F52542B
:10D4D0004544004E52465F4552524F525F494E56A8
:10D4E000414C49445F504152414D004E52465F45C8
:10D4F00052524F525F494E56414C49445F5354413A
:10D500005445004E52465F4552524F525F494E5667
:10D51000414C49445F4C454E475448004E52465F8B
:10D520004552524F525F494E56414C49445F464C1A
:10D53000414753004E52465F4552524F525F494E4B
:10D5400056414C49445F44415441004E52465F4568
:10D5500052524F525F444154415F53495A45004E25
:10D5600052465F4552524F525F54494D454F5554B4
:10D57000004E52465F4552524F525F4E554C4C0042
:10D580004E52465F4552524F525F464F52424944B7
:10D5900044454E004E52465F4552524F525F494EEF
:10D5A00056414C49445F41444452004E52465F4507
:10D5B00052524F525F42555359004E52465F4552A8
:10D5C000524F525F434F4E4E5F434F554E54004EA5
:10D5D00052465F4552524F525F5245534F55524348
:10D5E0004553004E52465F4552524F525F4D4F4495
:10D5F000554C455F4E4F545F494E495449414C4943
:10D600005A4544004E52465F4552524F525F4D5567
:10D610005445585F494E49545F4641494C45440082
:10D620004E52465F4552524F525F4D555445585FDA
:10D630004C4F434B5F4641494C4544004E52465F78
:10D640004552524F525F4D555445585F554E4C4FC1
:10D65000434B5F4641494C4544004E52465F45525C
:10D66000524F525F4D555445585F434F4E445F49AA
:10D670004E49545F4641494C4544004E52465F4531
:10D6800052524F525F4D4F44554C455F414C5245AD
:10D690004144595F494E495449414C495A45440017
:10D6A0004E52465F4552524F525F53544F5241477C
:10D6B000455F46554C4C004E52465F4552524F52C4
:10D6C0005F4150495F4E4F545F494D504C454D4569
:10D6D0004E544544004E52465F4552524F525F46AB
:10D6E0004541545552455F4E4F545F454E41424C63
:10D6F0004544004E52465F4552524F525F494F5F7C
:10D7000050454E44494E47004E52465F4552524F97
:10D71000525F4452565F5457495F4552525F4F56CD
:10D72000455252554E004E52465F4552524F525F3F
:10D730004452565F5457495F4552525F414E4143F0
:10D740004B004E52465F4552524F525F4452565F15
:10D750005457495F4552525F444E41434B004E522D
:10D76000465F4552524F525F424C455F49505350BD
:10D770005F52585F504B545F5452554E434154458D
:10D7800044004E52465F4552524F525F424C455FF5
:10D79000495053505F4348414E4E454C5F414C52B7
:10D7A000454144595F455849535453004E52465FD2
:10D7B0004552524F525F424C455F495053505F4C67
:10D7C000494E4B5F444953434F4E4E4543544544A5
:10D7D000004E52465F4552524F525F424C455F49A0
:10D7E0005053505F504545525F52454A454354455A
:10D7F000440011121314636C6F636B00434C4F436E
:10D800004B004750494F5445005052530055415228
:10D8100054005541525445000D000300B1C00100B1
:10D820000E000300B1C001000F000300B1C00100F1
:10D8300010000300B1C001009C1A0020BC1A002097
:10D84000DC1A0020000000000000000000000000C2
:10D850000338FDD87047426561636F6E206578615B
:10D860006D706C6520737461727465642E000100C4
:10D8700000070000ECD00100ECD00100080000001F
:10D88000F4D0010004D1010008000000ECD0010038
:10D89000F4D00100080000006E72665F73646800D7
:10D8A00073645F626C655F6366675F736574282984
:10D8B0002072657475726E656420257320776865C3
:10D8C0006E20617474656D7074696E6720746F206A
:10D8D00073657420424C455F434F4E4E5F4346474D
:10D8E0005F4741502E0073645F626C655F636667DB
:10D8F0005F73657428292072657475726E65642083
:10D900002573207768656E20617474656D70746925
:10D910006E6720746F2073657420424C455F4741E9
:10D92000505F4346475F524F4C455F434F554E54FF
:10D930002E0073645F626C655F6366675F73657416
:10D9400028292072657475726E65642025732077AE
:10D9500068656E20617474656D7074696E6720749B
:10D960006F2073657420424C455F434F4D4D4F4EC1
:10D970005F4346475F56535F555549442E007364D5
:10D980005F626C655F6366675F73657428292072E8
:10D99000657475726E6564202573207768656E20E6
:10D9A000617474656D7074696E6720746F2073653F
:10D9B0007420424C455F47415454535F4346475F90
:10D9C000415454525F5441425F53495A452E0073AB
:10D9D000645F626C655F6366675F736574282920A6
:10D9E00072657475726E6564202573207768656E44
:10D9F00020617474656D7074696E6720746F207334
:10DA0000657420424C455F47415454535F43464739
:10DA10005F534552564943455F4348414E4745444D
:10DA20002E00496E73756666696369656E7420526F
:10DA3000414D20616C6C6F636174656420666F7228
:10DA40002074686520536F66744465766963652E3B
:10DA5000004368616E6765207468652052414D20FF
:10DA60007374617274206C6F636174696F6E206689
:10DA7000726F6D203078257820746F20307825788B
:10DA80002E004D6178696D756D2052414D2073698E
:10DA90007A6520666F72206170706C696361746969
:10DAA0006F6E20697320307825782E0073645F6272
:10DAB0006C655F656E61626C65282920726574759E
:10DAC000726E65642025732E00000000ECD001000A
:10DAD000ECD00100080000006E72665F7364685F3E
:10DAE000626C6500E4D00100ECD001000800000089
:10DAF0006E72665F7364685F736F6300202020201E
:10DB000020202020206828282828202020202020AD
:10DB1000202020202020202020202020481010100D
:10DB20001010101010101010101010108484848425
:10DB300084848484848410101010101010818181DA
:10DB40008181810101010101010101010101010145
:10DB500001010101010101101010101010828282D8
:10DB60008282820202020202020202020202020215
:10DB7000020202020202021010101020000703200D
:10DB800004170201085710408000000030DD01003A
:10DB9000F4DB010008DD010053756E004D6F6E006F
:10DBA00054756500576564005468750046726900D5
:10DBB00053617400000000004A616E004665620017
:10DBC0004D617200417072004D6179004A756E00BE
:10DBD0004A756C0041756700536570004F637400AF
:10DBE0004E6F76004465630000000000414D005018
:10DBF0004D0000002CDD010028DD010028DD0100C2
:10DC000028DD010028DD010028DD010028DD0100FC
:10DC100028DD010028DD010028DD0100FFFFFFFFF6
:10DC2000FFFFFFFFFFFFFFFFFFFF000068DC0100B9
:10DC300098DB0100A4DC0100B8DB0100ECDB010093
:10DC40004CDC0100FCDC010058DC0100256D2F25B7
:10DC5000642F2579000000002561202562202565BC
:10DC6000202554202559000053756E646179004DBC
:10DC70006F6E6461790054756573646179005765EE
:10DC8000646E657364617900546875727364617958
:10DC900000467269646179005361747572646179D8
:10DCA000000000004A616E7561727900466562721B
:10DCB00075617279004D6172636800417072696CC0
:10DCC000004D6179004A756E65004A756C790041B6
:10DCD00075677573740053657074656D6265720065
:10DCE0004F63746F626572004E6F76656D62657228
:10DCF00000446563656D62657200000025483A2541
:10DD00004D3A25530000000011CF01002DCF010036
:10DD100039CF010045CF010061CF01006DCF010077
:10DD200079CF010087CF0100000000002E00000025
:0CDD300043000000504F53495800000011
:10DD3C000000000000200040000000000020004017
:10DD4C000000000000000000FF0000000090D00365
:10DD5C00341B00201F000000000000000000000029
:10DD6C00FF02150112233445566778899AABBCCD56
:10DD7C00DEEFF001020304C38CDB01008CDB01003D
:0CDD8C008CDB01008CDB01008CDB010053
:0400000310009375E1
:00000001FF
